:100000000C9478050C94BF050C94BF050C942D2B13
:100010000C94BF050C94BF050C94BF050C94BF0550
:100020000C94BF050C94BF050C943F170C94FB1661
:100030000C9457280C94BF050C94BF050C94BF0575
:100040000C94BF050C94BF050C94BF050C94BF0520
:100050000C94BF050C944E180C94BF050C94BF056E
:100060000C94BF050C94BF050C94BF050C94BF0500
:100070000C94BF050C94BF050C94BF050C94BF05F0
:100080000C94BF050C94BF050C94BF050C94BF05E0
:100090000C94BF050C94BF050C94BF050C94BF05D0
:1000A0000C94BF050C94BF050C94BF050001010121
:1000B0000101010101010202020202020202020325
:1000C00003030303030303040404040404040505F5
:1000D00005050506060606060707070707080808B8
:1000E00008090909090A0A0A0B0B0B0C0C0C0D0D67
:1000F0000D0E0E0E0F0F0F101011111112121313FF
:100100001414151516161717181819191A1A1B1B77
:100110001C1D1D1E1E1F20202122222324242526D3
:1001200026272829292A2B2C2D2D2E2F303132320B
:10013000333435363738393A3B3C3D3E3F40414217
:10014000434445464748494A4C4D4E4F50515354FD
:10015000555658595A5B5D5E5F61626465666869B1
:100160006B6C6D6F7072737577787A7B7D7E808231
:10017000838587888A8C8E8F91939596989A9C9E7A
:10018000A0A2A3A5A7A9ABADAFB1B3B5B7BABCBE8A
:10019000C0C2C4C6C9CBCDCFD1D4D6D8DBDDDFE257
:1001A000E4E7E9EBEEF0F3F5F8FAFDFFFFAA7F557F
:1001B000402223252628292A2C2D2F30323335366C
:1001C000383A3B3D3E4042434547494A4C4E5051E8
:1001D000535557595A5C5E6062646668696B6D6F0F
:1001E00071737577797B7D7F81838587898A8C8E12
:1001F00090929496989A9C9E9FA1A3A5A7A8AAAC1A
:10020000AEAFB1B3B4B6B8B9BBBCBEBFC1C2C3C553
:10021000C6C7C9CACBCCCDCED0D1D2D2D3D4D5D6F5
:10022000D7D7D8D9D9DADADBDBDBDCDCDCDCDCDD28
:10023000DDDDDDDCDCDCDCDCDBDBDBDADAD9D9D80C
:10024000D7D7D6D5D4D3D2D2D1D0CECDCCCBCAC9A4
:10025000C7C6C5C3C2C1BFBEBCBBB9B8B6B4B3B1D3
:10026000AFAEACAAA8A7A5A3A19F9E9C9A9896946E
:1002700092908E8C8A89878583817F7D7B79777543
:1002800073716F6D6B6968666462605E5C5A595722
:10029000555351504E4C4A4947454342403E3D3BE1
:1002A0003A3836353332302F2D2C2A29282625236B
:1002B0002200AF29001E001F002000210022002B79
:1002C0000014001A00080015001700E000040016D2
:1002D00000070009000A00E1001D001B00060019CC
:1002E0000005000000E200E300605D2C00A800357E
:1002F00000270026002500240023002D00130012F3
:10030000000C0018001C00340033000F000E000D1C
:10031000000B00E500380037003600100011000027
:10032000004C002A00615D28004C00010001000122
:1003300000010001000100010001000100010001B5
:100340000001003A003B003C003D003E003F004001
:1003500000410042004300440045000000E200E389
:1003600000605D2C0001002F002F02010001000140
:100370000001003000300201005200010001002D98
:10038000002E024F005100500001003102380001E0
:100390000001000100010000004C002A00615D28FE
:1003A000004C0001000100010001000100010039C2
:1003B000001E001F002000210022003A003B003CEC
:1003C000003D003E003F0040004100420043004429
:1003D00000450000000100010001000100010001D2
:1003E00000010001000100010001000100270026BA
:1003F0000025002400230000004F0052005100504F
:10040000000000310030002F002E002D002E0200D1
:1004100000010001000100010001000000000000D7
:1004200000000000000000000000000000000000CC
:1004300000000000000000000000000000000000BC
:1004400000000000000000000000000000010001AA
:1004500000010001000000CE5CD05CD25CD45CD610
:100460005C0000CF5CD15CD35CD55C00000000CAAE
:100470005CC85CC65CC35C00000000CB5CC95CC7A8
:100480005CC45C00000000000001000100010001EC
:1004900000000000DA0281FFD9F1DB20A4A62EAF14
:1004A00000A0C000A1C800AED580A81FD300408D19
:1004B0001420001E0F0500047F3F1F6432146432B5
:1004C00014783C1E1E140A0500AE05010980A10126
:1004D000850319012AB700150126B700950175108B
:1004E0008100C0050C0901A101850419012AA0029F
:1004F000150126A002950175108100C005010906AD
:10050000A101050719E029E71500250195087501E6
:1005100081029501750881010507190029FF150061
:1005200026FF009506750881000508190129059523
:100530000575019102950175039101C009023B0007
:10054000020100A0FA0904000001030101000921D1
:10055000110100012240000705810308000A090477
:1005600001000103000000092111010001223200F5
:100570000705820320000A1201100100000008D8BC
:10058000042DEB0001010200010E034C0069006C18
:1005900000790035003800000010036C0069006C21
:1005A00000690075006D0073000000040309040079
:1005B00000000000003E5B4F5B3E003E6B4F6B3E19
:1005C000001C3E7C3E1C00183C7E3C18001C577DE5
:1005D000571C001C5E7F5E1C0000183C180000FFCA
:1005E000E7C3E7FF00001824180000FFE7DBE7FF80
:1005F0000030483A060E00262979292600407F055A
:10060000050700407F05253F005A3CE73C5A007F24
:100610003E1C1C0800081C1C3E7F0014227F221474
:10062000005F5F005F5F0006097F017F0000668951
:10063000956A0060606060600094A2FFA294000868
:10064000047E04080010207E20100008082A1C08E0
:1006500000081C2A0808001E10101010000C1E0CA8
:100660001E0C0030383E383000060E3E0E060000EC
:10067000000000000000005F00000000070007000D
:1006800000147F147F1400242A7F2A1200231308E9
:10069000646200364956205000000807030000003D
:1006A0001C224100000041221C00002A1C7F1C2A41
:1006B0000008083E080800008070300000080808A4
:1006C0000808000000606000002010080402003EDE
:1006D0005149453E0000427F400000724949494669
:1006E000002141494D33001814127F100027454561
:1006F0004539003C4A49493100412111090700367A
:100700004949493600464949291E000000140000A5
:1007100000004034000000000814224100141414AA
:100720001414000041221408000201590906003E79
:10073000415D594E007C1211127C007F49494936B7
:10074000003E41414122007F4141413E007F4949F5
:100750004941007F09090901003E41415173007F71
:100760000808087F0000417F4100002040413F0110
:10077000007F08142241007F40404040007F021C5F
:10078000027F007F0408107F003E4141413E007F10
:1007900009090906003E4151215E007F09192946D9
:1007A0000026494949320003017F0103003F4040D0
:1007B000403F001F2040201F003F4038403F006363
:1007C00014081463000304780403006159494D437D
:1007D00000007F4141410002040810200000414117
:1007E000417F0004020102040040404040400000FC
:1007F00003070800002054547840007F2844443800
:1008000000384444442800384444287F0038545475
:1008100054180000087E0902001824241C78007F68
:10082000080404780000447D4000002040403D0062
:10083000007F102844000000417F4000007C0478C5
:100840000478007C08040478003844444438007C70
:100850001824241800182424187C007C0804040898
:100860000048545454240004043F4424003C4040B5
:10087000207C001C2040201C003C4030403C0044B8
:1008800028102844004C9090907C004464544C44C0
:1008900000000836410000000077000000004136EB
:1008A0000800000201020402003C2623263C00004E
:1008B0000000000080808080000000000080E07068
:1008C000180C1830E080000010F8901030783010CC
:1008D000B8FC3810000000000000F8FCF800000030
:1008E000000000000000000000001C9C1C00000034
:1008F00000F8FCF80000000000001CFCF8C000003C
:100900000000000080E0F87C1C000000F0FCFCFC13
:100910001C1C1C1C1C1C1C1C000000000000C0F047
:10092000F8381C1C1C1C1C1C3CF8F0E000E0F0F02B
:10093000F0E0ECEEF7F37020007C7C7C7E007E7EA5
:100940007E7F7F7F000080C0E07E5B4F5BFEC0004B
:1009500000C000DCD7DEDEDED7DC00C00000000017
:100960000000000000000000000000000000000087
:10097000000000000FBCE0818181838382870C1816
:100980003060C000001FFE90B9FFBB91983C181169
:10099000133F1100000000000000FFFFFF000000F7
:1009A00000000000000000000000FFFFFF0000004A
:1009B00000FFFFFF0000000000000000030F7FF8B1
:1009C000E080F0FC3F0F0100000000003F3F3F1CB3
:1009D0001C1C1C1C3C78F8F0E08000000000C3E701
:1009E000FF7E3C3878787070F8FFDF87000F1F3F7C
:1009F0007F7F7F7F7F3F1E0C001F1F1F3F003F3FF9
:100A00003F7F7F7F00307B7F7830202030787F3BB6
:100A10000003000F7F0F0F0F7F0F00030000000087
:100A200000000000000000000000000000000018AE
:100A30003C24666341C18180808080808081C14187
:100A400062386C4CC68181808080808081C1436225
:100A5000361C1800000000000000FFFFFFC0C0C0EF
:100A6000C0C0C0C0C0C0800000007FFF7F00000089
:100A7000007FFFFFC080000000E0E0C0C0C0E0F9E0
:100A80007F1F0700000000000000000070F0E0E0A1
:100A9000C0C0C0C0E0F0F87F3F0F0000000F3F7FF4
:100AA000F9E0E0C0C0C0C0C0E0F97F3F1F00000017
:100AB0000000000000000000000000000000000036
:100AC0000000000000000000000000000000000026
:100AD0000000000000000000000000000000000016
:100AE0000000000000000000000000000000000006
:100AF00011241FBECFEFDAE0DEBFCDBF04B603FE88
:100B000027C080918E0690918F06A0919006B0919B
:100B100091068730904BA740B04BD1F410928E06CF
:100B200010928F06109290061092910614BE84B710
:100B3000877F84BF0FB6F894A89580916000886184
:100B400080936000109260000FBEE0E0F8E309952A
:100B500012E0A0E0B1E0E0E6F1E602C005900D92FF
:100B6000A439B107D9F726E0A4E9B2E001C01D928B
:100B7000AE38B207E1F70E9440230C948A300C94FF
:100B80000000E8EDF0E080818E7F80831092E2002B
:100B90001092DA001092E100A0EEB0E08C9181603A
:100BA0008C9380818F77808319BCA7EDB0E08C9106
:100BB0008E7F8C9380818F7E808310924E04089567
:100BC0002091E4003091E50095E6A9012091EC0028
:100BD000822F817020FF06C08091E80080FF06C050
:100BE00080E008952091E80022FD1AC080915B0406
:100BF000882389F0853089F08091EB0085FD0FC056
:100C00002091E4003091E50042175307F9F291502A
:100C1000E1F684E0089582E0089583E0089581E09C
:100C20000895EF92FF920F931F93CF937C018B0156
:100C30000E94E005C82F811117C08091E80085FD52
:100C40000BC08091E8008E778093E8000E94E00559
:100C5000882399F3C82F08C0F70181917F01809301
:100C6000F1000150110949F78C2FCF911F910F917D
:100C7000FF90EF90089580915D0487FF13C08091ED
:100C8000E80082FF06C08091E8008B778093E8003F
:100C900004C080915B048111F2CF089580915B04C0
:100CA0008823D9F38091E80080FFF8CF8091E80095
:100CB0008E77ECCF982F9093E900242F762F50E079
:100CC000891731F07091EC002091ED005091F00007
:100CD00021FD07C09F5F973071F78093E90081E0A5
:100CE00008953091EB003E7F3093EB003091ED00A2
:100CF0003D7F3093ED003091EB0031603093EB009D
:100D00007093EC002093ED005093F0002091EE00E2
:100D100027FDE0CF80E00895CF92DF92EF92FF921F
:100D20000F931F93CF93DF93C8EDD0E088818F7E20
:100D30008883E7EDF0E080818160808384E082BF7A
:100D400081E080934E0488818E7F888302EE10E0DC
:100D5000F80110821092DA0081EEC82ED12CF60133
:100D6000108288818F7788838881806888838881D2
:100D70008F7D888319BC10925B0410925C041092E2
:100D80005A041092590490EEE92EF12CF70180815B
:100D90008B7F808388818160888342E060E080E08F
:100DA0000E945A06F60180818E7F8083F80180813F
:100DB00081608083808188608083F70180818E7F5D
:100DC0008083888180618883DF91CF911F910F910B
:100DD000FF90EF90DF90CF900895FC018091630425
:100DE0009091640486179707A0F06115710529F4A6
:100DF0009091E8009E779093E80090E0611571056E
:100E000051F4911108C08091E80082FF34C080E065
:100E10000895BC01F2CF80915B048823C1F1853035
:100E2000C1F18091E80083FD30C08091E80082FD2F
:100E3000EACF8091E80080FFE1CF8091F30020911C
:100E4000F200382F6115710519F02830310558F07E
:100E500091E02830310509F090E02091E8002E77EC
:100E60002093E800CBCF81918093F100615071090C
:100E70002F5F3F4FE7CF80915B04882341F085309F
:100E800041F08091E80083FFBECF81E0089582E0C9
:100E9000089583E00895089580E00895089580916D
:100EA000500408959C014FB7F89480919603909157
:100EB0009703A0919803B09199034FBF821B930BA6
:100EC00008952FB7F89460919603709197038091DD
:100ED0009803909199032FBF08959C01FC013296CD
:100EE0009FEF80E04191461751F09F3F19F4411167
:100EF00001C0982F8F5F8630A9F79F3F09F40895AE
:100F0000290F311D97FD3A95F9016283089580916B
:100F10009103811110929103089580919003909113
:100F20008F03892B90918E03892B80939602909149
:100F30009103992391F0892B8093960220E088E910
:100F400092E0FC013191CF0131112F5FF2E08E3937
:100F50009F07B9F721110E948707E091AE03F09136
:100F6000AF03309731F00280F381E02D86E992E003
:100F700009940895E92FEE0FE90FEE0F8E0F982FC9
:100F8000977086958695869525E0829FF0011124BD
:100F9000EB59FC4F50E040E080E0219130E0092E19
:100FA00002C0369527950A94E2F721703327042E64
:100FB00001C0220F0A94EAF7822B4F5F5F4F453042
:100FC000510559F70895E92FEE0FE90FEE0F8E0F37
:100FD000982F977041E001C0440F9A95EAF78695E3
:100FE0008695869595E0899FF0011124EB59FC4F79
:100FF00030E020E070E05191DF011197CB01022E2B
:1010000002C0969587950A94E2F7817081958527AD
:10101000842385278C932F5F3F4F2530310559F767
:1010200008958091640390913303981301C008954B
:101030008F5F8770FACF882341F08095909190035D
:101040008923809390030C948D070895882339F0A9
:1010500090919003982B909390030C948D07089592
:101060000C94610720912803309129032817390730
:1010700071F09093290380932803E091AE03F091DF
:10108000AF03309721F00084F185E02D0994089595
:1010900020912603309127032817390771F0909388
:1010A000270380932603E091AE03F091AF033097BE
:1010B00021F00680F781E02D0994089590E080E00A
:1010C0000E94480890E080E00E94320810928F034E
:1010D00010928E030C948D076093730670937406C0
:1010E00080937506909376060C945E080F931F9379
:1010F00041E050E060E070E004C0440F551F661FFF
:10110000771F8A95D2F7CB01BA01609570958095CB
:101110009095009173061091740620917506309198
:10112000760660237123822393231F910F910C94E1
:101130006C0890918D038095892380938D03282FCF
:10114000277039F4282F082E000C330B9217130642
:1011500021F490919F0392FF07C085958595859511
:101160000E94760810928D0308950F931F9341E01B
:1011700050E060E070E004C0440F551F661F771F09
:101180008A95D2F78091730690917406A0917506A6
:10119000B09176068A019B01082B192B2A2B3B2B39
:1011A000C901B8011F910F910C946C0880917306CE
:1011B00090917406A0917506B09176060097A105EE
:1011C000B105A1F0AC01BD0176956795579547959E
:1011D00040FF0CC022E0B695A795979587952A9574
:1011E000D1F780FF03C083E00C94B50883E00C9432
:1011F0007608609392037093930380939403909383
:1012000095030C945E088823B1F19CEF980F913AF6
:1012100070F4E8E9F2E09191891303C0DF011197BE
:101220001C9242E0EE39F407B1F70C948D0790E27E
:10123000980F983088F4877021E030E0A90102C04F
:10124000440F551F8A95E2F7CA018095909190034B
:10125000892380939003E9CF9BE5980F933020F486
:1012600090E080E00C944808885A873120F490E0A0
:1012700080E00C9432080895CF93C82F882309F496
:101280004EC08CEF8C0F813AF8F4E8E9F2E08EE979
:1012900092E0DF012D91C21759F08A179B07D1F711
:1012A0006C2F86E992E00E946D07CF910C948D0718
:1012B0002191C21303C0DF0111971C928E179F0763
:1012C000B9F70E948D07ECCF80E28C0F883068F46C
:1012D000C77021E030E001C0220FCA95EAF7809183
:1012E0009003822B80939003E0CFEBE5EC0FE3308B
:1012F00040F4F0E0E65CFD4F808190E0CF910C94EB
:101300004808C85AC73158F4EC2FF0E0EE0FFF1F21
:10131000E35CFD4F80819181CF910C943208CF9195
:101320000895E091AE03F091AF03309721F0019062
:10133000F081E02D099480E00895FA01811101C047
:10134000FB010994EBECF3E01182828184608283DB
:1013500008958091C603982F9E7F29F48170826042
:101360008093C60308958635E8F381708465F8CFCD
:10137000AF92BF92DF92EF92FF920F931F93CF93A2
:10138000DF93082F162FE901E42FF0E0E455FF4F1B
:10139000611110C0E4915E2F4E2F4983E8835A8378
:1013A000DF91CF911F910F91FF90EF90DF90BF9051
:1013B000AF900895E62EF12C4491D42EE42FF0E066
:1013C00026E0829FC00111242FEF30E0B9010E9476
:1013D000462C802F90E0880F991F55E5569FD0012D
:1013E000579FB00D11248A1B9B0B982F990F890FC3
:1013F0005901AE18BF08AE9ED001AF9EB00DBE9E83
:10140000B00D11245B2F189F80011124012F11278B
:101410005901A01AB10AAE9E8001AF9E100DBE9E6A
:10142000100D11245901A81AB108AE9CC001AF9C3F
:10143000900DBE9C900D1124892F9927281B390BE4
:101440002E9FC0012F9F900D3E9F900D1124E92FDC
:1014500062307105A1F050F46115710509F49DCF5A
:101460006130710581F0EB2F512F97CF64307105FA
:1014700069F080F06630710509F48FCFF4CFE42F66
:101480004B2F592F8ACFE42F412F87CFEB2F542F8B
:10149000492F83CF4B2F5D2DE12F7FCFF894E82F7D
:1014A000E295EF70F0E031A1282F2F7081E090E0FD
:1014B00001C0880F2A95EAF7982F9095932391A35E
:1014C00092A1892B82A37894089590919E0392FF14
:1014D00006C0282F28712830F9F4877F846093FF95
:1014E00006C0282F28712831F1F4877E846120916D
:1014F0009F0320FF06C0382F38713830D9F4877F1A
:10150000816021FF06C0282F28712831D1F4877E01
:10151000816194FD877E0895282F24712430F9F687
:101520008B7F8860DCCF282F2471243101F78B7EDC
:101530008861DDCF382F3171313019F78E7F8860A7
:10154000E0CF282F2171213121F78E7E8861E1CFF4
:10155000CF93DF93972F70E026E0929F600D711D6F
:101560001124FB013CE3839FE00DF11D1124EE0FDC
:10157000FF1FED54FD4FC591D491CE01C238D10566
:10158000B9F1E8F5C133D10509F499C050F5C93274
:10159000D10509F48DC0CA32D10509F497C0C1152F
:1015A00042E5D40708F0B6C0C11521E5D20708F01E
:1015B00024C1C83ED10508F09DC0C13ED10568F5E3
:1015C000C83AD10508F089C0C53AD10508F0EDC088
:1015D000C130D10511F1209709F443C02497E8F4F4
:1015E00040C0C533D10509F45CC0C933D105B9F693
:1015F00020919E03237089F080EE90E00EC0C33EE0
:10160000D10591F168F4C03ED105F9F0C23ED10593
:1016100031F620919E0322FD20C0DF91CF910895E5
:10162000C63ED10561F1C73ED10581F1C43ED10569
:1016300009F0B5CF20919F0321FFEFCF80919E034A
:1016400084FD0FC087EE90E0E8CF20919E0320FD3F
:1016500001C130919F0330FFE0CF83EE90E024FF83
:10166000DCCF90E080E0D9CF20919E0322FDF5C031
:1016700030919F0330FDC0CF24FFCFCFF2CF209118
:101680009E0323FFCACF24FDECCFDCCF20919E0325
:1016900023FDE6C030919F0331FFEECF84EE90E052
:1016A000BCCF20919E0325FFB8CF89E290E0B5CF53
:1016B00020919E0325FFB1CF85E390E0AECF20912E
:1016C0009E0326FFAACF8AE290E0A7CF20919E0337
:1016D00026FFA3CF81E390E0A0CFCF3BD10508F652
:1016E000C85AD0E0CC0FDD1FC35CDD4F88819981E3
:1016F000946493CFC11530E5D30708F062C0C115DB
:1017000040E4D40708F059C0DA95C115DF4108F468
:1017100084CFA7CFC11536E5D30718F5C11545E528
:10172000D40708F080C0C11584E5D80708F076C05A
:101730009C2F96959695AE0143705527C115D345BC
:1017400008F460C021E030E002C0220F331F4A9548
:10175000E2F740E2949FC0011124822B932B9A68F8
:101760005CCFC1153AE5D30778F4C11549E5D40734
:1017700008F063C0C11588E5D80708F472CF9C2F24
:101780008827806F906A49CFCE019056811590428C
:1017900008F067CF8D2F8F710E94650A90E0982F17
:1017A000882788279F718C2B46C0C55AD0E0C65C1D
:1017B000DD4F888190E0906430CFCE019F70906AB9
:1017C0002CCF9E01E4E036952795EA95E1F723704A
:1017D0008C2F86958695837030E2839FC0011124FB
:1017E000922BC37021E030E002C0220F331FCA9554
:1017F000E2F7822B932B9C6810CF9C2F8827816F58
:10180000906A0BCF21E030E002C0220F331F4A95CF
:10181000E2F740E2949FC0011124EBCF9C2F882770
:10182000846F906AFACE8C2F0E94650A90E0982F00
:10183000882788279F719062F0CE8C2F8F700E942E
:10184000650A34E0D695C7953A95E1F7CF709C2F9D
:101850009069E3CE89E390E0E0CE82EE90E0DDCEC9
:1018600086EE90E0DACEBF92CF92DF92EF92FF92B7
:101870000F931F93CF93DF938C01C0907306D0908A
:101880007406E0907506F090760680919203909130
:101890009303A0919403B0919503C82AD92AEA2A08
:1018A000FB2ACFE1D0E0BC2ED701C6010C2E04C02C
:1018B000B695A795979587950A94D2F780FD0EC0A7
:1018C000219788F7B12C8B2DDF91CF911F910F912C
:1018D000FF90EF90DF90CF90BF900895B8018C2FCC
:1018E0000E94A80A019761F3EECFCF93DF93EC013A
:1018F0000E94330CBE01DF91CF910C94A80A0E9484
:10190000750C292F2F7092959F7092509E3078F40D
:10191000E92FF0E0E457FF4C0C946E2C803F19F057
:1019200020F4883E20F481E00895843FE1F380E0D4
:101930000895883EC0F3813FD1F7F5CF822F869579
:1019400086958695089510929003E8E9F2E086E086
:10195000DF011D928A95E9F70C945E081F93CF93DF
:10196000DF93CDB7DEB7AA970FB6F894DEBF0FBEF0
:10197000CDBF8DE594E02091F100FC012193CF01D2
:10198000F4E085369F07B9F780915E04833009F44F
:101990006FC0B8F4813009F446C0823009F4B0C099
:1019A0008091E80083FF7BC280915D0490915E048A
:1019B0009A3008F074C2E92FF0E0E656FF4C0C9420
:1019C0006E2C8A3009F48BC08B3009F46EC08930DC
:1019D00039F780915D04813219F78091610490910B
:1019E00062040297E8F68091E800877F8093E80020
:1019F0008091E80082FF37C09091F3008091F2005F
:101A0000029729F48091F1008B7F813021F480913D
:101A1000F100809350048091E8008B778093E80078
:101A20000E943B06BDCF80915D04813A09F0B8CF9A
:101A30008091E800877F8093E80080916104909115
:101A40006204892B61F468E081E594E070E00E9413
:101A5000ED068091E8008B778093E800A1CF60E0ED
:101A600090E080E0F3CF80915B048111C1CF98CFEB
:101A700080915D04813A09F093CF80916104909147
:101A80006204892B09F08CCF8091E800877F8093D6
:101A9000E8008091E80080FFFCCF8091690180938D
:101AA000F1008091E8008E77B9CF80915D0481329A
:101AB00009F076CF8091610490916204892B09F03E
:101AC0006FCF8091E800877F8093E8000E943B06FB
:101AD00080915F04809369010E94A30C61CF809183
:101AE0005D04813209F05CCF8091E800877F8093AC
:101AF000E8000E943B068091600480934F0450CF21
:101B000080915D04813A09F04BCF8091E800877F96
:101B10008093E8008091E80080FFFCCF80914F0423
:101B2000BECF803899F0823809F0B9C18091610444
:101B30008F70873008F0B3C18093E9008091EB008B
:101B400085FB882780F91092E90006C0809159042E
:101B500090915A04911182609091E800977F909340
:101B6000E8008093F1001092F1008091E8008E77F8
:101B700092C1882309F480C1823009F090C180911C
:101B80005F04811183C1809161048F702FEF280F52
:101B9000263008F084C18093E9002091EB0020FFFB
:101BA00075C1933031F48091EB0080628093EB003B
:101BB0006DC19091EB0090619093EB0021E030E0DB
:101BC00001C0220F8A95EAF72093EA001092EA00FA
:101BD0008091EB008860EACF811161C110915F04B0
:101BE0001F778091E3008078812B8093E3008091C0
:101BF000E800877F8093E8000E943B068091E80020
:101C000080FFFCCF8091E30080688093E30082E056
:101C1000111183E080935B0442C18058823008F048
:101C20003EC180915F04909160048C3D23E0920757
:101C3000A1F583E08A838AE289834FB7F894DE01B5
:101C4000139620E03EE051E2E32FF0E0509357007E
:101C5000E49120FF03C0E295EF703F5FEF708E2F9D
:101C600090E0EA30C0F0C7968D939D932F5F2431AA
:101C700059F74FBF8091E800877F8093E8006AE2C0
:101C800070E0CE0101960E94ED068091E8008B770E
:101C90008093E80004C1C096E7CF40916104509161
:101CA0006204292F33272330310509F444C078F525
:101CB0002130310509F46FC08BE390E0ECE3F5E0EF
:101CC0002230310509F0EBC02091E800277F2093F6
:101CD000E80020916304309164048217930708F4AC
:101CE0009C0140E02115310509F064C0411162C03A
:101CF0008091E80082FDC9CF80915B04882329F29E
:101D0000853019F28091E80083FFF2CFBECF2132F7
:101D10003105A9F12232310509F0C1C04115510543
:101D200009F443C04130510509F0B9C082E390E0A5
:101D3000EAECF4E0C9CF992781309105C1F0009712
:101D400059F0029709F0ABC0E9E8F5E0E4918E2F75
:101D500090E0E9E8F5E007C0EBEAF5E0E4918E2FCA
:101D600090E0EBEAF5E0009709F499C0ADCFE9E91E
:101D7000F5E0E4918E2F90E0E9E9F5E0F4CF41152C
:101D8000510571F04130510509F089C089E090E0BA
:101D9000E7E6F5E099CF82E190E0E7E7F5E094CF60
:101DA00089E090E0EEE4F5E08FCF80E490E0ECEFA6
:101DB000F4E08ACF80915B04882309F466CF8530F4
:101DC00009F463CF8091E80083FD5FCF8091E80044
:101DD00082FD8ECF8091E80080FF84CF9091F30048
:101DE0008091F2002115310519F08830910550F0ED
:101DF00041E0089709F040E08091E8008E778093F9
:101E0000E80070CF44914093F100319621503109A0
:101E10000196E8CF803809F042C08091E800877FC2
:101E20008093E80080915C048093F1009ECE811144
:101E300036C010915F04123090F58091E800877FE2
:101E40008093E80010935C040E943B06112311F07C
:101E500084E005C08091E30087FDFACF81E08093A4
:101E60005B0442E061EC81E00E945A0642E261ECD0
:101E700082E00E945A0613C080915F04813079F499
:101E800081E0933009F080E080935A041092E900D9
:101E90008091E800877F8093E8000E943B06809154
:101EA000E80083FF0AC08091E800877F8093E80004
:101EB0008091EB0080628093EB00AA960FB6F894B5
:101EC000DEBF0FBECDBFDF91CF911F910895CF939D
:101ED000DF93682F81E06A3019F06D3029F480E0DB
:101EE000DF91CF910C94E80F80917106909172066A
:101EF00026E0FC01ABE6B6E001900D922A95E1F7F1
:101F0000603E08F45AC026E0FC0111922A95E9F7D8
:101F1000C0917106D091720646E050E0BE018BE69A
:101F200096E00E942C2D9E012B563440892B41F1C6
:101F3000C90145E0969587954A95E1F741E050E063
:101F4000BA0102C0660F771F8A95E2F7CB01609154
:101F5000690470916A04862B972BB9016B5F7F4FE0
:101F6000E5E076956795EA95E1F702C0440F551FC5
:101F70006A95E2F7842B952B90936A048093690409
:101F80002A5F3F4F40916804642F70E0C9010E94AE
:101F9000462C481B463010F4240F311D211572E0E9
:101FA000370710F030E020E025593B4F30937206A0
:101FB00020937106DF91CF910895F6E06F9FB001F5
:101FC000112461557A4F46E050E00E94162DA0CFB3
:101FD000CF93382FE0917106F0917206EB56F440E2
:101FE00020916804622F70E0CF010E94462C281BCC
:101FF000822F332361F066E00E943A2CC82FC15033
:1020000010F4CF91089580E20E94670FF8CF9F01EE
:10201000280F311D2115324018F080E0F0E0E0E09B
:102020008E0F9F2F911D85599B4F90937206809321
:102030007106E7CF0F931F93CF93DF93EC01FC0161
:1020400001900020E9F78F0101501109C017D10755
:1020500028F0DF91CF911F910F91089589910E94EF
:10206000670FF4CFCF92DF92EF92FF920F931F93FF
:10207000CF93DF936C017B0164E670E088E70E94F8
:102080009429EC0197FD12C010E000E0F601E00F8A
:10209000F11F849164E670E00E94F029EC01892B25
:1020A00029F40F5F1F4F0E151F0581F70E94732A39
:1020B000CE01DF91CF911F910F91FF90EF90DF90B4
:1020C000CF900895CF93C0913E048091410488231E
:1020D000D1F00E946107605A75418F4F9F4F609306
:1020E0003A0470933B0480933C0490933D04C111E7
:1020F00008C062E070E081EB92E00E943210892B10
:1021000029F0C0913E048C2FCF91089581E08093F7
:102110003E04F7CFCF9384E090E00E94DF2FC82FDA
:1021200082E290E00E94DF2F982F8C2FCF910895AC
:10213000CF93DF9300D00F92CDB7DEB790915B04C1
:10214000943019F589837B836A8382E08093E90068
:102150008FEF9091E800815095FD06C095ED9A951E
:10216000F1F700008111F5CF8091E80085FF0DC0E7
:1021700050E040E063E070E0CE0101960E9411065D
:102180008091E8008E778093E8000F900F900F9079
:10219000DF91CF910895BC0184E00C949810BC01AC
:1021A00083E00C949810CF93DF93EC0181E080934F
:1021B000E9008FEF9091E800815095FD06C095ED04
:1021C0009A95F1F700008111F5CF8091E80085FF25
:1021D00014C050E040E068E070E0CE010E941106BB
:1021E0008091E8008E778093E80088E0FE01A1E509
:1021F000B4E001900D928A95E1F7DF91CF910895B7
:102200001F93CF93DF93182FEB010E943C09209777
:1022100031F4812FDF91CF911F910C9403098FE945
:102220009FE00197F1F700C000002197F0CF8111E6
:1022300009C0662359F070E060E089EA0E9400114D
:1022400081E008958130E1F76623A9F370E060E052
:102250008AEAF4CF609113018091C60380FF20C009
:102260008091120143E0849FC00111248A559D4F43
:10227000539A2BB1277F3BB138605FB7F894FC01CC
:10228000649FE00DF11D1124BF0168177907D1F497
:102290005FBF8FE594E00197F1F700C0000008955B
:1022A000809114019091150123E0829FF001112487
:1022B000EA55FD4F8917A0F61182108212828F5FB6
:1022C0003396F8CFFC014191CF01E8E03BB9000023
:1022D00000C047FF2BB9440F000000C000C000C081
:1022E0002BB900C0EA9591F7D0CF4F925F926F92D1
:1022F0007F928F929F92AF92BF92CF92DF92EF9296
:10230000FF920F931F93CF93DF93FC016280448071
:1023100081E08483E1EBF1E07490E0E3F2E0E491AA
:10232000812C75E0972EF2E0CF2EDD24D394AA24E1
:10233000AA94B12C55245A94E7190E2F10E08091DD
:102340001601881690F0DF91CF911F910F91FF90A9
:10235000EF90DF90CF90BF90AF909F908F907F9045
:102360006F905F904F900C942A11E82CF12C82E032
:10237000861568F09E9CF0019F9CF00D1124EA5296
:10238000FD4F8091C70380838091C80381834110F2
:1023900023C09E9CF0019F9CF00D1124EA52FD4F3A
:1023A0001382128220911401C701820F911D9C019A
:1023B000220F331F280F391F2A553D4F9E9CF001D5
:1023C0009F9CF00D1124EA52FD4F42816181808172
:1023D0000E94B8098394B3CF9E9CE0019F9CD00DCE
:1023E0001124CA52DD4F8B818823E9F081508B8301
:1023F000859DC00111246C8170E00E94462CFB0178
:10240000FF27EF54FE4F8491E82FE719E59DC001A7
:102410001124B8010E94462C8091C903689FB00125
:1024200011247A83BFCF0E94062D2091C9032695DF
:1024300021582C9DA0012D9D500D1124452F55276D
:10244000841795070CF0AECF82E0861588F40E94C1
:10245000062DB5010E945A2C88830E94062D2091DA
:10246000C8032695622F70E00E945A2C280F2983FA
:102470009E9CF0019F9CF00D1124EA52FD4F1282A8
:102480008091C903893C58F088EC9E9CF0019F9C88
:10249000F00D1124EA52FD4F8483838383CF84316E
:1024A000A0F784E1F2CFEF92FF921F93CF93DF93D7
:1024B000EC0110E0EE24EA94F12C6091160116175D
:1024C00070F00E942A119A818C8190FF27C08F5F43
:1024D0008C83DF91CF911F91FF90EF900895209111
:1024E0001401422F410F5527551FCA019A01220F8F
:1024F000331F280F391F2A553D4F70E0C7010E9436
:102500005A2C962F8C814091C9036091C803199F62
:10251000800D11240E94B8091F5FCFCF8150D8CF02
:102520009F92AF92BF92CF92DF92EF92FF920F9362
:102530001F93CF93DF93EC018A81BB24BA9480FD73
:1025400002C0BB24B394A09016018C81811109C0F4
:1025500081E0B81225C08FEF8A0D8093A30281E03D
:102560008C83F12CE12CEA14F0F00E942A11809166
:10257000A30291E0B9125BC0811154C08091160191
:1025800081508093A3021C82DF91CF911F910F9104
:10259000FF90EF90DF90CF90BF90AF909F90089505
:1025A0001092A302DCCF009114010E0D1F2D111DFE
:1025B000C801880F991F080F191F0A551D4FF801F0
:1025C00011821082128234E0C32ED12C912C809182
:1025D000A302890D813114F18F70082E000C990B24
:1025E0008E159F0591F48091C9038C9DA0018D9D4E
:1025F000500D112455954795559547959801609133
:10260000C8038091C7030E94B8099B0CF1E0CF1A60
:10261000D108E9F68FEFE81AF80AA5CF87FFDDCFDA
:102620008A0DDBCF81508093A302BC82ADCF90E0B6
:1026300001966091160170E00E945A2C8093A302CB
:102640008C83A2CFEF92FF920F931F93CF93DF93D0
:10265000EC018C81811109C081E08C831092A4026D
:1026600092E09093100180930F018091140190915A
:10267000150123E0829FF0011124EA55FD4F8917CF
:1026800068F110E003E060911601161768F10E94EE
:102690002A1180910F012091A402280F2093A402F7
:1026A00090911001980F90931001191654F4022E76
:1026B000000C330B409116014150550B2417350780
:1026C00034F0819580930F01813009F41C82DF91F1
:1026D000CF911F910F91FF90EF900895118210827A
:1026E00012828F5F3396CBCFE12EF12C70E0C701C1
:1026F0000E945A2C20911401820F482F50E0209103
:10270000A402022E000C330BE216F306BCF020915B
:102710001001022E000C330B2E153F057CF0809F1C
:10272000900111242A553D4F4091C9036091C8037F
:102730008091C7030E94B8091F5FA5CFFA01EE0F71
:10274000FF1FE40FF51FEA55FD4F11821082128220
:10275000F3CF8F929F92AF92BF92CF92DF92EF9280
:10276000FF920F931F93CF93DF93EC014C81042FC3
:1027700010E09801D8010E947B309B01AC010E94BF
:1027800046304B015C01E0E2F0E0E01BF10BA5E517
:10279000B0E0AC019B010E9446306B017C019F01BF
:1027A000DF010E94742C9B01AC010E9451309B01FF
:1027B000AC01280D391D4A1D5B1DC701B6010E94E1
:1027C0005930F22E822F90E039E23F1560F143E05C
:1027D000249F9001112435952795122F109500E024
:1027E00085E5E82EEF1880911601081758F10E9430
:1027F0002A119C8181E0992319F0903219F48FEF0E
:102800008093110180911101890F8C83DF91CF9109
:102810001F910F91FF90EF90DF90CF90BF90AF90FE
:102820009F908F90089525E530E0B901681B790BE2
:102830009B01220F331F260F371F37FFCCCF2F5F8F
:102840003F4FC9CF8E2D01FD8F2D20911401622F96
:10285000600F7727771F9B01220F331F260F371F2B
:102860002A553D4F412F6091C8030E94B8090F5F60
:10287000BACF0F931F93CF93DF93EC0110E000E0EA
:10288000909116019017110609F06CF40E942A111C
:102890008C8190E00196817099278C83DF91CF9194
:1028A0001F910F91089520911401A801420F511D0D
:1028B0009A01220F331F240F351F2A553D4F4C819B
:1028C0006091C8038091C70396959017110651F047
:1028D0004CF0442349F04091C9030E94B8090F5FAE
:1028E0001F4FCECF4423B9F340E0F7CF9091C603FA
:1028F00090FF14C0909114012091150133E0939F33
:10290000F0011124EA55FD4F921710F00C942A1192
:102910008183608342839F5F3396F6CF08950F9340
:102920001F93CF93DF9300D00F92CDB7DEB78C010A
:102930008091A50281110AC09E012F5F3F4F4FEF8A
:102940006FEF0E94B8098A818093A502F801648123
:10295000613069F08091A50240E0662361F040E0BB
:10296000623011F44091A50280E060E004C0609103
:10297000A50240E080E00E947614F801848190E096
:10298000019663E070E00E945A2C84830F900F90B0
:102990000F90DF91CF911F910F910895CF93DF9307
:1029A00000D00F92CDB7DEB79091C60390FF0AC05A
:1029B0009E012F5F3F4F0E94B8094B8169818A8138
:1029C0000E9476140F900F900F90DF91CF91089591
:1029D000CF93DF93EC01EC81F0E0EF54FE4F449194
:1029E000E6ECF3E0628181810E94CE148C818F5FDE
:1029F0008C83DF91CF910895CF93DF93EC01E6ECC8
:102A0000F3E0438162818C810E94CE148C818F5FC0
:102A10008C83DF91CF910895E6ECF3E080818E7F87
:102A200080830E94A209EBECF3E0828181608283C3
:102A30002FEF80E792E0215080409040E1F700C006
:102A400000000C942A118091A202811110C0809183
:102A5000D80080618093D8008AE18A95F1F700C0A0
:102A60008091D90080FF0AC081E08093A20281E0BA
:102A70009091A202913009F080E0089582E0809365
:102A8000A2020E94C10510925B04F1CFCF92DF92A7
:102A9000EF92FF926B017C010E94A909B701A60188
:102AA00088E090E0FF90EF90DF90CF900C9405309D
:102AB000AF92BF92CF92DF92EF92FF920F931F934C
:102AC000CF93DF9300D00F92CDB7DEB7182FF62E3D
:102AD000042FE22E9091C60390FF3AC0E92FE695AD
:102AE000AE2FB0E0AD52BE4F8C918093CB039E7F52
:102AF0009230E1F59E012F5F3F4F812F0E94B80970
:102B00004B8169818A810E9476148091C703811369
:102B100008C08091C8038F1104C08091C903801739
:102B200029F08091CD0382608093CD031093C70379
:102B3000F092C8030093C903EE2051F06091C603E0
:102B40007091C7038091C8039091C9030E944615F4
:102B50000F900F900F90DF91CF911F910F91FF90E9
:102B6000EF90DF90CF90BF90AF900895823019F42E
:102B70000091C903CACF863019F41091C703C5CF9D
:102B80008930D9F3893109F6E9518E2F8170D82E19
:102B9000E695F0E0E455FE4FA590B490C12CBB241F
:102BA00060911601C61618F00E942A11AECF2C2D86
:102BB00030E0A29EC001A39E900DB29E900D112404
:102BC00070E00E94462C812FD11013C0860F4091D7
:102BD0001401420F532F511D9A01220F331F240F4E
:102BE000351F2A553D4F402F6F2D0E94B809C394C1
:102BF000D7CF861BECCFE6ECF3E0438121E1421B0B
:102C000008F440E021E0628181810C945815E6ECE3
:102C1000F3E0438121E1420F08F44FEF21E06281AC
:102C200081810C945815E6ECF3E0628121E1621B8E
:102C300008F460E021E0438181810C945815E6ECB2
:102C4000F3E0628121E1620F08F46FEF21E043813C
:102C500081810C945815E6ECF3E0818121E04381F9
:102C6000628188500C945815E6ECF3E0818121E0F4
:102C700043816281885F0C9458158091CA03882330
:102C800019F081508093CA036091C6037091C70305
:102C90008091C8039091C9030C9446158091CA0392
:102CA000833018F48F5F8093CA036091C6037091DC
:102CB000C7038091C8039091C9030C944615E6ECB4
:102CC000F3E083E0808311828FEF82838383148219
:102CD000ABECB3E012968C911297836012968C93B2
:102CE00060817181828193810C9446156AEE7EEF3A
:102CF00090E080E00E94113060E082E090E00E946D
:102D0000F32F60E083E090E00E94F32F1092920393
:102D100010929303109294031092950360E084E064
:102D200090E00E94F32F60E082E290E00E94F32F97
:102D300060E085E090E00E94F32F60E086E090E0A4
:102D40000E94F32F6FEF87E090E00E94F32F40E0A6
:102D500050E0BA0188E090E00E94053060E08DE02C
:102D600090E00E94F32F40E050E0BA0188E190E04B
:102D70000E94053060E087E190E00E94F32F40E080
:102D800050E0BA018CE190E00E94053070E060E014
:102D900080E290E00E94113040E050E0BA0188E10A
:102DA00090E00E94053040E050E0BA018FE090E0F2
:102DB0000E94053040E050E0BA0183E190E00C94BD
:102DC0000530CF93C0919F03C2FB992790F99817C4
:102DD00081F080FBC2F9C0939F0360919E0384E061
:102DE00090E00E94F32F6C2F82E290E0CF910C9440
:102DF000F32FCF9108951F920F920FB60F921124C7
:102E00002F933F934F935F936F937F938F939F93F2
:102E1000AF93BF93CF93DF93EF93FF93D091E900EC
:102E2000DF708091EC00C82FC17080FDC0E8109267
:102E3000E9008091F000877F8093F00078940E94F1
:102E4000AE0C1092E9008091F00088608093F00051
:102E5000CD2BCF70C093E900FF91EF91DF91CF911F
:102E6000BF91AF919F918F917F916F915F914F91A2
:102E70003F912F910F900FBE0F901F9018951F92AA
:102E80000F920FB60F9211242F933F934F935F939E
:102E90006F937F938F939F93AF93BF93EF93FF9322
:102EA0008091E10082FF09C08091E20082FF05C0AD
:102EB0008091E1008B7F8093E1008091DA0080FFB8
:102EC00024C08091D80080FF20C08091DA008E7FDE
:102ED0008093DA008091D90080FF9BC080E189BD9A
:102EE00082E189BD09B400FEFDCF81E080935B04DF
:102EF00080914E04811109C00E94C1050E948C0678
:102F00008091E20084608093E2008091E10080FF84
:102F100017C08091E20080FF13C08091E2008E7F95
:102F20008093E2008091E20080618093E2008091D2
:102F3000D80080628093D80019BC85E080935B0440
:102F40008091E10084FF29C08091E20084FF25C0C8
:102F500080E189BD82E189BD89B5982F917080FF9C
:102F6000FBCF8091D8008F7D8093D8008091E100C5
:102F70008F7E8093E1008091E2008F7E8093E2005B
:102F80008091E20081608093E20080915C0488235C
:102F900009F445C084E080935B048091E10083FFE5
:102FA00027C08091E20083FF23C08091E100877FEA
:102FB0008093E10082E080935B0410925C04809136
:102FC000E1008E7F8093E1008091E2008E7F80930C
:102FD000E2008091E20080618093E20042E060E0E4
:102FE00080E00E945A068091F00088608093F00093
:102FF000FF91EF91BF91AF919F918F917F916F91D1
:103000005F914F913F912F910F900FBE0F901F90A6
:10301000189519BC10925B0410924E0476CF8091E3
:10302000E30087FD93E090935B04B7CF0F931F936A
:103030000E942315882321F01F910F910C946107A2
:103040000E94610700919A0310919B0320919C03B9
:1030500030919D03600F711F821F931F1F910F916D
:103060000895CF92DF92EF92FF926B017C010E9454
:10307000231581110EC00E946107C61AD70AE80AFB
:10308000F90AC0929A03D0929B03E0929C03F092BB
:103090009D03FF90EF90DF90CF90089578941F925A
:1030A0001FB61F9211248F939F93AF93BF9380916C
:1030B000960390919703A0919803B091990301967C
:1030C000A11DB11D8093960390939703A09398033D
:1030D000B0939903BF91AF919F918F911F901FBEA5
:1030E0001F9018952FB7F8948091960390919703AD
:1030F000A0919803B09199032FBF08950F931F9348
:10310000CF93DF93C62FD42F022FFC018281882317
:10311000A1F0609367040E947218909366048093F4
:103120006504C77081E001C0880FCA95EAF7DF9196
:10313000CF911F910F910C9426088091670468131A
:1031400037C080916504909166040E9452078436CE
:10315000910570F510E21D0FCD17B9F080E28C0FCC
:10316000883040F4C77081E001C0880FCA95EAF743
:103170000E941B08183048F481E09D2F977001C011
:10318000880F9A95EAF70E94260870E060E0802F89
:103190000E940011183098F4D77081E001C0880FA8
:1031A000DA95EAF7DF91CF911F910F910C941B08EC
:1031B000C77081E001C0880FCA95EAF7F3CFDF91AD
:1031C000CF911F910F9108950E94231581110C94A6
:1031D00072180E941618CB0108956091C603669577
:1031E00070E04BE050E084E091E00E941F2D892BBD
:1031F00019F481E08093CC030E94E4189093C103FA
:103200008093C0038091CD0384608093CD030895A3
:103210009091C60390FF3BC0917081112EC09260C7
:103220009093C6038091CD0381608093CD03662384
:1032300051F06091C6037091C7038091C8039091CB
:10324000C9030E9446156091C603669570E04BE085
:1032500050E084E091E00E941F2D892BA9F00E948C
:10326000A20981E08093C30320E04091C9036091EB
:10327000C8038091C7030C9458158B3210F09465E5
:10328000CFCF880F982BCCCF0E94ED18EACF0895AE
:103290008091C6038695815009F48AE261E00C941E
:1032A00008198091C60386958F5F8B3208F081E004
:1032B00061E00C9408199091C60390FF07C09695A1
:1032C000981720F0961710F40C94511961E00C94A3
:1032D00008194F925F926F927F928F929F92AF9256
:1032E000BF92CF92DF92EF92FF920F931F93CF93F3
:1032F000DF9300D000D00F92CDB7DEB77C01FC0188
:1033000083819481892B39F01081D180812F8D2187
:103310008F3F09F023C50F900F900F900F900F90E3
:10332000DF91CF911F910F91FF90EF90DF90CF90A1
:10333000BF90AF909F908F907F906F905F904F90D5
:1033400008950E94330C082F682F89819A810E946A
:10335000E307E12FF0E026E0D29EE00DF11D1124FD
:103360003CE3039FE00DF11D1124EE0FFF1FED5410
:10337000FD4F05911491F70182818823C9F150E234
:10338000D52E0C33110520F4F801E250FE4FD08009
:103390001F92DF921F930F93F70180811F928F93EB
:1033A00081811F928F938AE791E09F938F931F9261
:1033B00088E18F938BEE93E09F938F930E94402D33
:1033C0000FB6F894DEBF0FBECDBF80912A03909157
:1033D0002B03449799F180912A0390912B03FC01D0
:1033E000ED5FFB4FD082019690932B0380932A03CD
:1033F00000363DE5130709F4CAC070F50F359DE5A9
:10340000190709F493C0043F2CE5120709F4DDC045
:10341000A8F5093D8CE5180709F4D3C00A3D9CE5E1
:10342000190709F4DEC0083DECE51E07A9F526E200
:1034300041EE61EEC7010E947E1887C010922B03F7
:1034400010922A03E3E0F4E087E194E020E2219384
:103450008E179F07E1F7BFCF0136EDE51E0709F490
:10346000A4C00236FDE51F0771F6F70182818823AB
:1034700009F4A3C083E00E94B50867C0063FFCE5DD
:103480001F0709F4AAC008F4A4C027E245EE66EEBF
:10349000073F3CE5130771F2F7018281882309F4A5
:1034A0006EC4109267040230FCE51F0708F47AC16D
:1034B00006312CE5120730F0C8018B5F9C45099757
:1034C00008F070C10E948A1090939F0380939E031E
:1034D00000313CE5130709F434C108F0C2C00830DC
:1034E0009CE5190709F423C108F091C00430FCE5FC
:1034F0001F0709F414C108F077C002303CE5130738
:1035000009F403C103301C4509F405C160919E0311
:1035100010919F0384E090E00E94F32F612F82E2DC
:1035200090E00E94F32F0E94A30C0FC0F70182814C
:10353000882359F061E083E090E00E94F32F61E07E
:1035400070E080E090E00E94F90880918D03877020
:1035500009F4E1CEF7018281882309F4DCCE82E010
:103560000F900F900F900F900F90DF91CF911F91C0
:103570000F91FF90EF90DF90CF90BF90AF909F9012
:103580008F907F906F905F904F900C949908F70107
:103590008281882331F081E00E94B5080E94D6081C
:1035A000D4CF81E00E947608F9CFF7018281882389
:1035B00011F082E0F1CF82E0F5CF83E00E9476083F
:1035C000C4CF27E245EE65EE35CF26E241EE60EE50
:1035D00031CF27E245EE64EE2DCF26E241EE62EEDA
:1035E00029CF28E241E0EFCF80919E038061063031
:1035F0009CE5190709F48CC080919E038860073010
:103600001C4508F485C080919E03806281C0809132
:103610009E038D7F0C30FCE51F0709F479C070F420
:1036200080919E038C600A303CE5130709F470C05A
:1036300008F481C080919E038E7F6AC080919E03B2
:10364000877F0E309CE5190709F462C080919E03C4
:103650008B7F0F301C4508F45BC080919E038F7EEA
:1036600057C00C3FFCE51F0709F45DC030F503317E
:103670003CE5130709F46DC078F401319CE51907A6
:1036800009F463C002311C4509F040CF0E94A30C2D
:1036900080919E038F773CC00531FCE51F0709F43C
:1036A00060C008F474C080919F0381600B3F1C458B
:1036B00009F02CCF80939F0329CF01158DE51807C2
:1036C00009F44BC088F480919F038D7F0E3FECE599
:1036D0001E0781F380919F038E7F0F3F1C4550F39F
:1036E00080919F038360E6CF02302DE5120709F435
:1036F00057C008F442C060E003301D4509F006CF12
:103700008EE090E00E94F32F01CF80919E038160B4
:1037100080939E03FBCE80919E038260F9CF8091BF
:103720009E038460F5CF80919F038260C3CF809118
:103730009E038064EDCF0E94A30C80919E0380685D
:10374000E7CF80919E038F7DE3CF80919E038F7B97
:10375000DFCF80919E03837FDBCF80919F038C7F9F
:10376000A9CF80919E0382FB992790F921E09227AF
:1037700090FB82F990FB83F9CBCF80919F03982F28
:10378000909591708E7F892B90FB81F993CF0E9449
:10379000A30C90919E03892F97FB87F98058B8CF8F
:1037A00061E0AECF06319CE5190709F000C38091B6
:1037B00090038A7A91E009F490E090932C0369E2F7
:1037C000811165E386E992E00E946D070E948D07F2
:1037D000BCCE85E3DEC281608093C60361E086953E
:1037E0000E940819B2CE48E459E161E579E10E94EE
:1037F0009D09ABCE41E559E168E479E1F8CF44E3B6
:1038000056E16BE276E1F3CF43E156E16FE176E119
:10381000EECF4BEF55E167E076E1E9CF47E056E1C7
:103820006BEF75E1E4CF4EE456E16DE376E1DFCF77
:1038300061E081E0D5CF65E082E00E945B1985CE32
:1038400068E086E0FACF64E18FE0F7CF67E185E1D9
:10385000F4CF62E289E1F1CF61E083E2C1CF0E945F
:10386000A30C3FEF84E39CE0315080409040E1F7AF
:1038700000C0000087E797E7909301088093000855
:1038800088E19AE00FB6F894A895809360000FBE87
:1038900090936000FFCF81E0AAC280E0A8C2C80177
:1038A0000E94BA07D82EB4C2212F2F70A22E107FEB
:1038B00019F0A29420EFA222DD20C9F0AA2069F01D
:1038C00080E2800F883010F081100BC0809190034F
:1038D000A82AA09290030E948D07802F0E943C0985
:1038E00018C080918F03A82AA0928F03F4CF802F55
:1038F0000E940309AA2069F0A094005E083010F02D
:10390000811045C080919003A822A09290030E944C
:103910008D07EB2DE850FF0B349710F40E949109AE
:10392000CC20A9F080918D0380FD11C0F701128297
:103930008595859585950E94B508C7010E946919EE
:1039400080918D038595859585950E94760885E003
:10395000F701DE01119601900D928A95E1F78981B8
:103960009A810E94BA079A81E981F0E026E0929F4D
:10397000E00DF11D11243CE3839FE00DF11D1124A6
:10398000EE0FFF1FED54FD4F85919491C4CC8091B3
:103990008F03A822A0928F03BACF312F3F70932EAE
:1039A000107F103219F0929490EF9922882071F0D4
:1039B00081E0881681F1DD20D9F1AA2091F1F7018B
:1039C000858180FF8ACF8F7085832BC0DD20B1F089
:1039D00090919103892D892BA11003C00E94260884
:1039E00098CFE1E0AE12FACF20919F0322FD91CF54
:1039F000981709F48ECF809391038BCFA11006C046
:103A00000E948707892D0E941B0883CFF1E0AF1623
:103A100009F47FCFF5CFDD2031F025E02A1508F439
:103A200078CF892DDBCF34E03A1508F472CFEACF96
:103A3000AA2041F3F9E38F128AC12FEF37EE83E01A
:103A4000215030408040E1F700C0000080C1812F4C
:103A500086958695837061F0813009F05ACFC80150
:103A60009370D11002C090E080E00E94320851CFE4
:103A7000C8019370D11002C090E080E00E94480815
:103A800048CF812F837009F066C0D11042CF802FBC
:103A9000829586958770880F880F602F6F70462EED
:103AA000512C712C612C082E04C0440C551C661C32
:103AB000771C0A94D2F740E050E0BA0104FF0FC02F
:103AC0004FE050E060E070E004C0440F551F661FF7
:103AD000771F8A95D2F74095509560957095812F04
:103AE000869586958370823019F1D8F400919203FF
:103AF000109193032091940330919503813069F0E4
:103B00004429552966297729CB01BA0160237123FD
:103B1000822393230E94F908FCCE402A512A622A6C
:103B2000732ACB01BA016429752986299729F2CF16
:103B3000442955296629772900919203109193030E
:103B40002091940330919503CB01BA01602771272E
:103B500082279327DFCF8695DD2011F0812F81709A
:103B6000882309F4D6CE802F829586958770880F9A
:103B7000880F602F6F70462E512C712C612C082EEF
:103B800004C0440C551C661C771C0A94D2F740E014
:103B900050E0BA0104FF0FC04FE050E060E070E079
:103BA00004C0440F551F661F771F8A95D2F74095B2
:103BB000509560957095812F86958695837082309B
:103BC00019F1D8F4009173061091740620917506CE
:103BD00030917606813069F0442955296629772984
:103BE000CB01BA0160237123822393230E946C08C6
:103BF00090CE402A512A622A732ACB01BA01642945
:103C0000752986299729F2CF4429552966297729CC
:103C10000091730610917406209175063091760616
:103C2000CB01BA016027712782279327DFCF1F704E
:103C3000DD2029F0812F0E94B508802FCFCE802F64
:103C40000E941B08812F0E94760863CE802F92EF7E
:103C5000891609F454C0981578F0E0EF8E1639F102
:103C6000F1EF8F1609F443C0DD2009F46BC0A110F9
:103C700034CE812F8F7140C023EF821609F444C0E7
:103C800034EF8312F1CFDD2009F451C01F71812F71
:103C90000E94B50880919F0382FD07C0E8E01E9F47
:103CA000C0011124836080938D03812F25C0DD2006
:103CB000C9F084E08A1508F42CCE1F7161E070E031
:103CC00080E090E004C0660F771F881F991F1A9547
:103CD000D2F7009173061091740620917506309109
:103CE0007606A0CF95E09A1508F413CEE6CF812F83
:103CF0008F71DD2009F4A7CF0E94B5080ACE812F6D
:103D00008F71DD20C9F39FCF60E070E0CB01DD2033
:103D100009F46CCF1F7161E070E080E090E004C0B6
:103D2000660F771F881F991F1A95D2F75FCF81E022
:103D30000E949908F1E0FA1508F0EBCD82E00E94AC
:103D40009908E7CDAA2039F0893309F476CE802F7F
:103D50000E940309DECD812F8F7175CF85E0DE01D2
:103D6000119601900D928A95E1F7F70122818981E0
:103D70009A812111E6CA0E94BA07082FEACA0631C1
:103D8000FCE51F0709F077C080912C03811121CD3C
:103D900089E2E8E9F2E02EE932E09191891303C06B
:103DA000DF0111971C922E173F07B9F70FCD0B3586
:103DB0002DE5120709F46FCD58F401158CE51807AD
:103DC00009F44DCD0F3D1C45A1F40E947616BDCBE4
:103DD0000C35EDE51E0709F460CD0D351D4549F4A0
:103DE00080919F0382FB882780F991E089270E94B8
:103DF000E116F701828100811181882309F44FCDFA
:103E0000C8010E94330CD82E682FC8010E94E30716
:103E1000B8018D2D0E94A80A8C01882EF701D2804E
:103E2000A580A2944FE0A42280918D038770A1F019
:103E3000CD2CDD2091F0812F807F803421F080E235
:103E4000800F883048F082E00E94990880918D03AD
:103E50008770CC24C3948111C12CB12EB2943FE061
:103E6000B322FBE0FB1508F454CDEB2DF0E0EC554C
:103E7000FF4C0C946E2C8091900382720D3C2CE5CB
:103E8000120709F4D0CC08F064C0073C9CE5190780
:103E900009F4B5CCE0F5043CFCE51F0709F4A3CC1C
:103EA00040F5033C1C4509F0A4CF8091C60380FF78
:103EB00092CC8E7F8093C6036091C6037091C70336
:103EC0008091C8039091C9030E9446150E94A209DF
:103ED0008091CD0381608093CD03EFEFF0E722E086
:103EE000E150F0402040E1F700C000000E942A119C
:103EF0002CCB053C9CE5190709F47CCC4BE256E140
:103F000064E376E1063C1C4509F471CC72CF0A3CAF
:103F1000FCE51F0709F47DCC70F4083C3CE5130771
:103F200009F472CC4FE156E163E176E1093C1C45AE
:103F300009F45DCC5ECF0B3CECE51E0709F46ECCBA
:103F40004DE356E16EE476E10C3C1C4509F44FCCA0
:103F500050CF023D2CE5120709F475CC98F40F3CC4
:103F60008CE5180709F467CC08F462CC003DECE559
:103F70001E0709F465CC6EE089E0013D1C4509F49B
:103F80005CCC37CF053D2CE5120709F462CC60F418
:103F9000033D8CE5180709F459CC61E088E1043D44
:103FA0001C4509F41DCC25CF063DECE51E0709F4A0
:103FB00053CC6AE285E20E351D4509F43ECC19CF9B
:103FC0001F93CF93DF9380913203807FA9F4809178
:103FD0002F03882389F080916403D091330360918B
:103FE0002D0370912E03A0913003B0913103C62FA1
:103FF000C72316E0D81304C0DF91CF911F91089515
:1040000090E0109711F0CF3F19F401968770F2CF2E
:10401000189F9001199F300D1124F901EC5CFC4FA1
:1040200041814713F2CF40814613EFCF42814111C6
:10403000ECCF438154814A1B5B0B4436510528F772
:10404000809132038F70806180933203F901E75CC5
:10405000FC4F80818F70806180838DE293E00E94AD
:104060006919DF91CF911F910C941108AF92BF9203
:10407000CF92DF92EF92FF920F931F93CF93DF9334
:10408000CDB7DEB761970FB6F894DEBF0FBECDBFD8
:104090008C0185E0F801DE011D9601900D928A9554
:1040A000E1F7F80180819181E2802DE2A22E23E0E8
:1040B000B22E60913003709131036115710509F4DE
:1040C0002BC130912D0340912E03232F24232F3F0A
:1040D00009F422C1C380D480F0902F03F601E61BBF
:1040E000F70BFF2009F4FBC020913203522F507FC1
:1040F000E436F10508F0BBC0511178C0FE2C49131D
:1041000021C038131FC0E1101DC02F702061209303
:104110003203C5010E94691980913203F801858339
:104120008F2D61960FB6F894DEBF0FBECDBFDF9125
:10413000CF911F910F91FF90EF90DF90CF90BF90A4
:10414000AF900895CD2829F0282F29232F3F09F07B
:1041500001C120E0F22FF170DF2E20FF3DC0209141
:1041600064034091330356E0241315C08D879E8766
:104170008D859E850E94750C292F22952F702230E7
:10418000F8F0243020F59F70F9F0F8019581907FC8
:10419000D9F4D12C1FC030E0529FF001539FF00D95
:1041A0001124EC5CFC4F6181961306C0608186137C
:1041B00003C06281E61210C02F5F3F4F2770D4CF3B
:1041C0009F7011F0882329F3805E883010F3C801B6
:1041D0000E946919FD2CA4CFEE2009F4A1CF809193
:1041E0003203816080933203F12C9ACF491312C0BD
:1041F000381310C0E1100EC0F8012583C8010E94D9
:10420000691986E0F801ADE2B3E001900D928A955C
:10421000E1F786CF8D879E878D859E850E947F0CD6
:10422000882309F1EE20F9F080913203803270F09A
:1042300020912D0330912E0338872F831986DB863A
:10424000CA868C87CE0107960E94691986E0F8011C
:10425000ADE2B3E001900D928A95E1F70E94E01F74
:10426000FF24F3945DCFC8010E946919F9CF511161
:104270000AC08DE293E00E94691986E0F50111926F
:104280008A95E9F7B1CF49130FC038130DC0E1107B
:104290000BC0F8012583C8010E94691986E0F50169
:1042A00011928A95E9F73CCF8D879E878D859E85F3
:1042B0000E947F0C8823B9F2EE20A9F2809132038C
:1042C000803220F220912D0330912E033A832983EE
:1042D0001B82DD82CC828E83CE010196B5CFE4367F
:1042E000F105E0F6FE2CEE2009F4BDCF491303C022
:1042F000381709F486CF8D879E878D859E850E940D
:104300007F0C8111A3CF80913203816080933203AF
:10431000C8010E94691904CFEE2009F4A4CF8D874B
:104320009E878D859E850E947F0CF82E882309F438
:104330009ACF86E0F801ADE2B3E001900D928A9544
:10434000E1F780912D0390912E030E94750C0E943D
:10435000E01FE6CE21E02E25FDCE1F93CF93DF9305
:10436000CDB7DEB767970FB6F894DEBF0FBECDBFEF
:10437000342F4B8B252F5C8B6D8B7E8B8F8B8E8997
:104380009F89611110928F031A8A198A3D872E879F
:104390006F87998B888B86E0FE013D96DE0117962C
:1043A00001900D928A95E1F7CE0107960E94362082
:1043B000882389F016E08091640390913303891378
:1043C00049C067960FB6F894DEBF0FBECDBFDF9130
:1043D000CF911F91089586E0FE013796DE01119678
:1043E00001900D928A95E1F78A859B85892B11F3BF
:1043F0008F81988589238F3FE9F22091330330E044
:10440000C9010196877099274091640348171906DE
:1044100071F40E94A30C109233031092640386E09F
:10442000EDE2F3E0DF011D928A95E9F7C3CF96E054
:10443000929FD001939FB00D1124AC5CBC4FFE0144
:10444000319601900D929A95E1F7809333030E9483
:104450001108B0CF819FC00111248C5C9C4F0E9439
:104460003620882309F4ADCF8091640390E0019653
:1044700087709927809364039ECF8F929F92AF920B
:10448000BF92CF92DF92EF92FF920F931F93CF9341
:10449000DF9300D000D00F92CDB7DEB70BE612E06D
:1044A00080EAC82E83E0D82E4601F12CAA24A394DA
:1044B000B12CD8018D918D01F894E82FE295EF7021
:1044C000F0E021A18F70A50102C0440F551F8A950D
:1044D000E2F7CA01922F982B91A392A1809589238C
:1044E00082A3789400C0E5E7F2E030E020E0E12C20
:1044F0004191A42FA295AF70B0E090968C9190E07E
:104500004F7002C0959587954A95E2F780FD48C0A7
:104510008A2D022E01C0880F0A94EAF7E82A2F5F3D
:104520003F4F2630310521F7F801319780810E94F5
:104530004E0A50EA5A95F1F7D4018C91E81691F1A0
:10454000EC9281E0F82ABFEF8B1A9B0AE2E0003779
:104550001E0709F0AECF1091AB03FF2029F181E0D7
:104560008093A0020E94721890939F0280939E02F3
:1045700080919E0290919F020E9452070697C0F080
:10458000E12FF0E0ED54FC4FD6018D916D01819348
:10459000B5EACB16B3E0DB06B9F71092A00208C06B
:1045A00080E0BCCF80E0CECF8091A0028111E0CF2F
:1045B0000E942315E82E6091AB03882309F455C0AF
:1045C0008E010F5F1F4F85E0F80111928A95E9F780
:1045D000862F90E0B8018D549C4F0E943C29811198
:1045E00027C08091A1028F5F8093A1028630D8F10D
:1045F000E091AA03F0E0ED54FC4F10821182128288
:1046000013821482F11001C0FE2C8F2D0F900F9099
:104610000F900F900F90DF91CF911F910F91FF900E
:10462000EF90DF90CF90BF90AF909F908F900895C4
:104630001092A102A091AA03B0E0AD54BC4F9E011C
:104640002A5F3F4FE12C4D91F80191918F0149175D
:1046500031F0AD0141505109FA019083E82E021763
:10466000130789F7CFCFE12CCDCF70E06D547C4F8D
:104670008091AA0390E08D549C4F0E946B29C2CF79
:10468000CDB7DEB72D970FB6F894DEBF0FBECDBF06
:1046900084B7877F84BF0FB6F894A8958091600097
:1046A000886180936000109260000FBE80E890E007
:1046B0000FB6F89480936100909361000FBE85B7A8
:1046C000806885BF85B7806885BF8CE497E090934C
:1046D0009502809394020E94C1050E948C068091ED
:1046E000E20084608093E200789480915B048823E8
:1046F000A1F01091E9001F709091EC00892F81705A
:1047000090FD80E8182B1092E9008091E80083FD6D
:104710000E94AE0C1F701093E90082E084BD93E00C
:1047200095BD9AEF97BD80936E0010929A031092F8
:104730009B0310929C0310929D030E94231580936B
:10474000170180911701882309F45AC210921201AF
:1047500088E0809313010E94231581110E94132980
:10476000809117018091170195E0811190E090935D
:10477000AB0385E0891B8093AA0386E60E944E0A5C
:1047800087E90E944E0A86EC0E944E0A84E30E944A
:104790004E0A85E30E944E0A86EF0E944E0A87EF7A
:1047A0000E944E0A81E30E944E0A83E30E944E0A51
:1047B00082E30E944E0A86E30E944E0AE0EAF3E09A
:1047C0008AEA93E0A3EBB3E011921D928E179F0744
:1047D000D9F790E080E00E94ED2F8A3E9E4F11F0C5
:1047E0000E94761682E090E00E94DF2F80934304BF
:1047F0000E948A1090939F0380939E0383E090E031
:104800000E94DF2F682F70E090E080E00E94F9089E
:104810000E942315811102C00E9419290E942315AC
:104820008111F2C182E08093380480E880936804AB
:104830000E948E296DE070E086EA94E00E943210BA
:10484000892BE9F58091380463E070E081FDDEC1D9
:1048500083EA94E00E943210892B89F56DE070E0C4
:1048600083E994E00E943210892B49F50E94610788
:10487000605A75418F4F9F4F60933A0470933B0489
:1048800080933C0490933D04EBE6F4E080E092E0FA
:10489000DF019C011D9221503040E1F7F093720638
:1048A000E09371068FEF9FEF90936A048093690401
:1048B00081E08093410480933E04109239048091FA
:1048C000AC0381113BC090E080E00E94ED2F8A3E56
:1048D0009E4F21F00E9476160E945F1688E090E0BD
:1048E0000E94E72F6093C6037093C7038093C803A9
:1048F0009093C9038091CD0383608093CD036E7F35
:1049000071F40E945F1688E090E00E94E72F6093A8
:10491000C6037093C7038093C8039093C9030E9492
:10492000A9090E94A2098091C60380FF04C060E02B
:1049300086950E94081981E08093AC0385988D9A32
:1049400084988C9A8FB185FB882780F97C9961C106
:1049500090E0892B8093D2039091170181E09827F2
:104960009093D103891B8093AD038FE591E09093E1
:10497000AF038093AE0383EB93E04AE0480F4B878D
:1049800080915B04FF24F39400E112E1853009F487
:1049900088C10E943D22E82E81110E946107E4E453
:1049A000F4E0A3EBB3E010E000E0B02EDD908191E5
:1049B0008D1509F496C18D25C12CFF24F394982FF1
:1049C0009F2109F489C10E942315882399F0C98287
:1049D000BA82DF2081E009F480E08B830E947218A4
:1049E0008160782F9D838C8349815A816B818D8171
:1049F0000E94AD21F801EC5BFB4F8081F826F0822C
:104A00008091CC03882309F464C08091CB03E091AA
:104A1000C603E695E81BE093C203823009F078C133
:104A2000F0E0EC53FB4FE4910E2F10E028EEC22E85
:104A300024E1D22E8091C303882361F01092C30336
:104A40000E94E4189093C1038093C0031092C503A1
:104A50001092C4030E94E418E091C003F091C103D6
:104A60009C012E1B3F0B2F3F3F4798F52091BF0322
:104A70002223B1F01092BF032091BD033091BE03F9
:104A8000821B930B8F3F9F4758F4205D3A48309329
:104A9000BE032093BD038091CD0388608093CD0336
:104AA000A090C403B090C503E00FF11FF093C103C1
:104AB000E093C00380EC93E0F60109958091C40374
:104AC0009091C503892B29F4AB2819F081E08093DC
:104AD000BF03E091D203EE0FEE0FE093D2038FB14C
:104AE00085FB662460F87C997FC180E08629E82BED
:104AF000E093D2031091D103EF70F0E0E558FD4F41
:104B000080819091D003890F8093D003F12C823063
:104B10006CF0E12FF0E0E253FC4F80818F5F8083E7
:104B200060E0812F0E941711FF24F3948091D0033D
:104B30008F3F6CF4E12FF0E0E253FC4F8081815015
:104B4000808361E0812F0E941711FF24F3948091EC
:104B5000D003082E000C990B62E070E00E945A2CE2
:104B60008093D003F1100E94300880914104882383
:104B7000B1F180913F04909140040E945207C29786
:104B800008F035C12091690430916A04211531057E
:104B900009F0A5C180913E04882309F10E946107B4
:104BA00000913A0410913B0420913C0430913D0463
:104BB000601B710B820B930B6F3F7F4F8F4F9F4793
:104BC00070F480914104882351F062E070E088EC39
:104BD00094E00E943210892B11F410923E04E110EF
:104BE00001C0F1100E9462100E949109909142044C
:104BF000891709F4C5CE0E94910980934204C0CE62
:104C000088E080931201A5CD80E00DCE80EA94E08B
:104C100021CE92E09ECE80915B04843009F433C0B3
:104C20000E94A2098091B203811109C0F092B203DF
:104C30008091C60381708093B1030E940C1510927D
:104C4000B00388E190E0A0E40FB6F894A8958093B3
:104C500060000FBEA093600083B7817F846083BF34
:104C600083B7816083BF7894889583B78E7F83BF35
:104C70000FB6F894A89580916000886180936000D9
:104C8000109260000FBE80915A04882351F00E9458
:104C90003D22E3EBF3E081918111F3C1BB85BE13AB
:104CA000FACF80915B04853009F4B5CF0E94A30C44
:104CB0000E9491091092B2038091B103882349F0B8
:104CC0008091C60381608093C60360E086950E9450
:104CD00008190E94ED185DCEC394FF0C26E0C212A5
:104CE0006ECE0F5F1F4F0A30110509F05ECE8FEFB9
:104CF0008E838F8318860E9472188160782F9A871E
:104D000089874E815F8168858A850E94AD2178CE32
:104D1000863059F4F0E0EF53FB4FE4910E2F10E092
:104D20009CEFC92E94E1D92E85CE893061F4E695A9
:104D3000F0E0E254FB4FE4910E2F10E083E5C82E23
:104D400082E1D82E77CE8F3061F4E695F0E0E5541D
:104D5000FB4FE4910E2F10E0B0E9CB2EB2E1DB2E39
:104D600069CE853159F4F0E0E854FB4FE4910E2F01
:104D700010E0A2E2CA2EA3E1DA2E5CCE08E210E037
:104D800079EAC72E73E1D72E883109F453CE8332E6
:104D900049F4E6EBF4E005911491FFE8CF2EF4E13D
:104DA000DF2E48CE04EF11E069E3C62E64E1D62E73
:104DB000843209F43FCE00ED17E05BE4C52E57E0E6
:104DC000D52E853209F036CE8E2F63E00E943A2C24
:104DD000E92FF0E0ED54FB4FE4910E2F10E0E5E7F2
:104DE000CE2EE1E1DE2E26CE82E090E07FCE0E9444
:104DF00072189093400480933F048BE694E0909364
:104E00007206809371060E942315882309F462C0FC
:104E10008091730690917406A0917506B091760604
:104E200084309105A105B10509F451C010F5009732
:104E3000A105B10559F167EA71E082309105A1053C
:104E4000B10531F1BF93AF939F938F9382EC91E0C3
:104E50009F938F931F9288E18F9383ED93E09F93AD
:104E60008F930E94402D0FB6F894DEBF0FBECDBFCA
:104E700013C088309105A105B10529F08E30910548
:104E8000A105B105F9F664EB71E002C06BE871E0D1
:104E900083ED93E00E94392D83ED93E00E941A1078
:104EA00081E00E94E80F8BEE93E00E941A1081E0EF
:104EB0000E94E80F83E094E00E941A1081E00E94B3
:104EC000E80F80914104882309F464CE5BCE6AE93F
:104ED00071E0DECF88E191E00E941A10F2CF80915C
:104EE000390461E070E0811155CE082F10E02B01EC
:104EF000082E02C0440C551C0A94E2F7A901442173
:104F00005521452B09F448C09091380490FD46C0C6
:104F10008295880F807680935A019801369527955F
:104F20003695279520935D01815E80935B011092F9
:104F30005E0124E630E047E050E068E571E088E794
:104F40000E941F2A892B09F025CEA80195E0440F65
:104F5000551F9A95E1F78091380480FD2DC0455981
:104F60005B4F04E610E020E230E060E488E70E9456
:104F7000462A892B09F00ECE0E946210C20180954C
:104F800090954090690450906A04482259225092AA
:104F90006A0440926904FECD8F5FA7CF880F880F07
:104FA000880F80935A0110925D01895F80935B01A5
:104FB00083E080935E01BDCFE8E1F4E080E2DF01B1
:104FC0001D928A95E9F7EFE8F2E0FD87EC870BE8A0
:104FD00012E099249394AC85BD852D91BD87AC8753
:104FE000F80121908F01240E352E311CC101855905
:104FF0009B4F1C01E22FF0E0E85EFB4F30E020E029
:1050000087E0A82EA21AB92C022E01C0BB0C0A946C
:10501000EAF7610190E0D6018D916D018B216A2D37
:10502000691B6770862E062E000C770BB82F01C007
:10503000BB0F8A94EAF78B2E7195619571096770A1
:10504000772701C086956A95EAF7882A8081882AA1
:1050500080829F5F9830F9F62F5F3F4F319628305E
:10506000310571F6E3E9F2E02C853D85E217F3079F
:1050700009F0B1CF04E610E020E230E048E154E06E
:1050800074CF09BD19BD09B400FEFDCF8091D800D1
:105090008F7D8093D8008091E00082608093E00053
:1050A0008091E00081FDFCCF0E94A30CFACD1F92FD
:1050B0001FB61F9211248F939F93AF93BF9380913C
:1050C000B003811113C08091960390919703A09132
:1050D0009803B09199034196A11DB11D8093960349
:1050E00090939703A0939803B0939903BF91AF91C6
:1050F0009F918F911F901FBE1F901895FF920F9345
:105100001F93CF93DF93D091AD030D2F10E0025387
:105110001C4FFC01C081F8018081C81BFC2E80E07F
:105120001F147CF09C2FC7FD90E0C91BC11114C057
:105130008823E9F0DF91CF911F910F91FF900C949C
:105140003008FA94F80180818F5F808360E08D2FB2
:105150000E94171181E0E4CFCF5FF8018081815078
:10516000808361E08D2F0E94171181E0DFCFDF91F6
:10517000CF911F910F91FF900895E091D103F0E03E
:10518000E253FC4F2081FC01208308951F93CF93AD
:10519000DF93EC01162F8F8180FF0BC0888180FF89
:1051A00023C09091C60391609093C60386950E9498
:1051B00008198F8181FF06C0212F4B816A81898167
:1051C0000E9458158F8182FF05C08E81882379F057
:1051D0000E94ED188F8183FF03C081E08093C30399
:1051E000DF91CF911F9108950E940C15E2CF0E948C
:1051F000A209F0CF25E0E6ECF3E0DC0101900D928E
:105200002A95E1F72091CB033091CC034091CD0357
:10521000FC0125833683478308951092CD030895BA
:105220008091CD03089562E070E08AE691E00C94ED
:10523000DA2A62E070E08AE691E00C94E32A0E94A8
:105240001029882361F083E896E00E94FA2881E023
:1052500090E00E94BC2B892B11F40C940D29089529
:1052600080918206883039F460E083E896E00E94FD
:10527000C628109282060895CF93DF93D62FC72FAA
:105280000E941F2990E080E00E94BC2B009709F546
:10529000ED2FFC2FDC01A458B94F2C9121930196DE
:1052A00085309105B9F781E896E00E947E280E943A
:1052B00016186E5F7F4F8F4F9F4F609378067093E5
:1052C000790680937A0690937B0681E0DF91CF91F7
:1052D000089580E0FBCFCF93DF93D62FC72F0E9496
:1052E0003029609178067091790680917A069091C4
:1052F0007B060E943118ED2FFC2F90E080E0219179
:10530000DC01A458B94F2C93019685309105B9F76B
:1053100081E896E0DF91CF910C94BD281092B900FE
:105320008CE08093B8000895EF92FF920F931F9343
:10533000CF93DF93182FEB011092BC0084EA809387
:10534000BC000E9472187C018091BC0087FF27C0BE
:105350008091B900887F883029F08091B900887FDA
:105360008031D9F51093BB0084E88093BC000E9483
:1053700072188C018091BC0087FF24C02091B90075
:10538000287F90E080E02831B1F081E090E0203487
:1053900011F490E080E09195819591090CC0CF3F88
:1053A000DC0791F20E9472188E199F098C179D07D5
:1053B00058F28EEF9FEFDF91CF911F910F91FF90E9
:1053C000EF900895CF3FDC07A9F20E947218801B6E
:1053D000910B8C179D0770F2ECCF8FEF9FEFEBCF07
:1053E0000F931F93CF93DF93EB018093BB0084E86F
:1053F0008093BC000E9472188C018091BC0087FFD2
:1054000011C02091B900287F81E090E0283211F48A
:1054100090E080E0919581959109DF91CF911F9166
:105420000F910895CF3FDC0741F30E947218801B53
:10543000910B8C179D0708F38EEF9FEFEECFCF9265
:10544000DF92EF92FF920F931F93CF93DF936B0145
:105450008A017901B9010E949429E6010C0D1D1DF4
:10546000C017D10761F424E92093BC00DF91CF91EC
:105470001F910F91FF90EF90DF90CF90089597FDCF
:10548000F2CFB70189910E94F029EACFCF92DF9243
:10549000EF92FF920F931F93CF93DF93C62F6A0172
:1054A0007901B8010E94942997FD0CC0B8018C2F96
:1054B0000E94F029E601EC0CFD1CCE15DF0511F071
:1054C00097FF0CC024E92093BC00DF91CF911F917E
:1054D0000F91FF90EF90DF90CF900895B8018991E0
:1054E0000E94F029EACF84E98093BC0008958EE100
:1054F0004A9B02C08150E1F74A9BFECF08955A981B
:1055000080E28A95F1F75A9A0895FC013BE03A95BA
:10551000F1F720E090E080E031E040E14A95F1F7DA
:10552000880F4A9B02C08160232742E04A95F1F729
:10553000000040E14A95F1F79F5F6913EECF90E1DB
:105540009A95F1F799B132E03A95F1F7000040E110
:105550004A95F1F792FB992790F992272081920FB3
:1055600090830895EF92FF920F931F93CF93DF9351
:105570000F92CDB7DEB719828C017C01E60EF11CCB
:105580000E151F0561F481E09981911180E00F9063
:10559000DF91CF911F910F91FF90EF9008950E949E
:1055A000772A68E0CE0101960E94852AF80181934E
:1055B0008F01E6CF90938D0680938C0660938B06C7
:1055C000529A5A9A089590938D0680938C06609310
:1055D0008B0652985A9AEA9AE9E6F0E080818F7C2D
:1055E000808308956150770B91E001C0990F6A950F
:1055F000EAF720E031E0911108C0222391F05A9A95
:1056000080E28A95F1F75A980895492F482339F096
:105610005A9A232740E24A95F1F79695ECCF5A988B
:10562000F9CF5A98EDCFFF920F931F93CF93DF934B
:10563000EC018C01060F111DC017D10731F4DF9169
:10564000CF911F910F91FF900895F9900E947F2AAA
:1056500068E08F2D0E94F22AEFCF1F920F920FB6B3
:105660000F9211240F931F932F933F934F935F93A8
:105670006F937F938F939F93AF93BF93EF93FF931A
:10568000CF93DF930F92CDB7DEB719820E94772AAE
:1056900067E0CE0101960E94852A082F069506959F
:1056A0000695982F92959570202F2570920F292F8F
:1056B0002370969596958770920F891344C08981BF
:1056C000811141C080918B068017E8F120E12A9575
:1056D000F1F75A9A529A82E08A95F1F700C0A8E051
:1056E0000A9FC001112400918C0610918D06080FAD
:1056F000191F5A98F8016581662321F086819781E8
:105700000E94132B0E947F2AF0E1FA95F1F75A9834
:1057100052985A9A20E12A95F1F7D80112966C9185
:105720001297662331F113968D919C910E94B22AB3
:10573000D801ED91FC91882311F088E001C082E04E
:1057400080830E94772A0F90DF91CF91FF91EF9194
:10575000BF91AF919F918F917F916F915F914F9189
:105760003F912F911F910F910F900FBE0F901F909F
:105770001895ED91FC91E1CF0F931F93CF93DF9399
:1057800020918B06281719060CF471C08C0193E048
:10579000000F111F9A95E1F7C0918C06D0918D06EC
:1057A000C00FD11FF894529A5A9825E02A95F1F724
:1057B0000000982F969595708570980F892F8370AB
:1057C00096959695980F092B0E947F2A00C067E056
:1057D000802F0E94F22A80E18A95F1F752985A9A16
:1057E0004A9B17C087E090E04A9915C06D816623F7
:1057F00021F18E819F810E94B22A81111EC0529A8E
:105800005A9AE881F98182E08083789482E090E07E
:105810000DC000C0E5CF019771F4529A5A9AE88101
:10582000F98181E08083789481E090E0DF91CF91ED
:105830001F910F91089500C0D7CF0E94772A20E2D0
:105840002A95F1F75A98529A80E18A95F1F76A8180
:10585000662321F08B819C810E94132B0E947F2A5A
:10586000E881F9811082789490E080E0DFCF84E0D5
:1058700090E0DCCF991B79E004C0991F961708F0DF
:10588000961B881F7A95C9F780950895AA1BBB1BA4
:1058900051E107C0AA1FBB1FA617B70710F0A61B30
:1058A000B70B881F991F5A95A9F780959095BC0151
:1058B000CD01089597FB072E16F4009407D077FDCD
:1058C00009D00E94462C07FC05D03EF490958195A6
:1058D0009F4F0895709561957F4F0895EE0FFF1FBC
:1058E0000590F491E02D09940E947B30332312F44B
:1058F0008A1B9B0B0C947E2C0E947B30B7FF089573
:10590000821B930B08952F923F924F925F926F925A
:105910007F928F929F92AF92BF92CF92DF92EF923F
:10592000FF920F931F93CF93DF93CDB7DEB7CA1BC0
:10593000DB0B0FB6F894DEBF0FBECDBF09942A88EB
:10594000398848885F846E847D848C849B84AA8493
:10595000B984C884DF80EE80FD800C811B81AA8120
:10596000B981CE0FD11D0FB6F894DEBF0FBECDBFEB
:10597000ED0108958F929F92AF92BF92CF92DF92E6
:10598000EF92FF92CF93DF93EC01688179818A8156
:105990009B81611571058105910521F464E279ED22
:1059A0008BE597E02DE133EF41E050E00E94273096
:1059B00049015A019B01AC01A7EAB1E40E944630BB
:1059C0006B017C01ACEEB4EFA50194010E94543050
:1059D000DC01CB018C0D9D1DAE1DBF1DB7FF03C0AB
:1059E0000197A109B04888839983AA83BB839F77D5
:1059F000DF91CF91FF90EF90DF90CF90BF90AF906D
:105A00009F908F9008950E94BA2C089580E091E0B5
:105A10000E94BA2C0895B0E0A0E08093000190931A
:105A20000101A0930201B09303010895FB01DC0181
:105A300002C005900D9241505040D8F70895FC01E6
:105A40004150504030F001900616D1F73197CF0108
:105A50000895882799270895FB01DC0104C08D91E2
:105A60000190801921F441505040C8F7881B990BD0
:105A70000895FB01DC0101900D920020E1F70895EB
:105A8000AEE0B0E0E6E4FDE20C94912C0D891E89B5
:105A90008F89988D26E02C831A83098397FF02C093
:105AA00080E090E801979E838D83AE01455E5F4F55
:105AB000698D7A8DCE0101960E94702D4D815E8197
:105AC00057FD0AC02F813885421753070CF49A01FD
:105AD000020F131FF80110822E96E4E00C94AD2CF7
